:100000000C9485000C94B6000C94B6000C94B600C9
:100010000C94B6000C94B6000C94B6000C94B60088
:100020000C94B6000C94B6000C94B6000C94B60078
:100030000C94B6000C94B6000C94B6000C94B60068
:100040000C94B6000C94B6000C94B6000C94B60058
:100050000C94B6000C94B6000C94B6000C945601A7
:100060000C94B6000C94C1030C94F7030C94B600E6
:100070000C94B6000C94B6000C94B6000C94B60028
:100080000C94B6000C94B6000C94B6000C94B60018
:100090000C94B6000C94B6000C94B6000C94B60008
:1000A0000C94B6000C94B6000C94B6000C94B600F8
:1000B0000C94B6000C94B6000C94B6000C94B600E8
:1000C0000C94B6000C94B6000C94B6000C94B600D8
:1000D0000C94B6000C94B6000C94B6000C94B600C8
:1000E0000C94B6000C947E040C9466020C942B04C1
:1000F0000C94D8020C944D020C9458020C94FA0201
:100100000C947A020C9421042B0411241FBECFEF0F
:10011000D1E2DEBFCDBF00E00CBF12E0A0E0B2E054
:10012000EEEBFBE000E00BBF02C007900D92A031A8
:10013000B107D9F722E0A0E1B2E001C01D92A43ED0
:10014000B207E1F711E0CAE0D1E000E006C0229773
:100150000109FE010BBF0E94CA05C830D10780E02B
:100160000807A9F70E946F040C94DD050C940000A9
:10017000FC014AE050E060E070E04083518362831C
:10018000738344835583668377834087518762876F
:100190007387448B558B668B778B408F518F628F23
:1001A000738F448F558F668F778F40A351A362A3BF
:1001B00073A344A355A366A377A340A751A762A73F
:1001C00073A708958F929F92AF92BF92CF92DF92C2
:1001D000EF92FF92CF93DF93EC01CB01BA01C8807D
:1001E000D980EA80FB80A70196010E948D054B0112
:1001F0005C011C861D861E861F86188A198A1A8A2B
:100200001B8A2AE030E0B701A60187E492E00E9451
:100210007A054C815D816E817F812AE030E087E440
:1002200092E00E947A0568EE73E080E090E00E9420
:10023000C301C501B401DF91CF91FF90EF90DF9032
:10024000CF90BF90AF909F908F900895CF93DF9302
:10025000EC011982188280E192E00E94B80081E0EE
:1002600090E099838883DF91CF910895CF93DF93B6
:10027000EC0140E050E0BA0180E192E00E94E2002F
:1002800088819981DF91CF91089526E040E855E279
:1002900060E070E087E492E00E945F038CE392E00C
:1002A0000C9426018CE392E00C9436011F920F927D
:1002B0000FB60F9211242F933F938F939F93AF9379
:1002C000BF9380913F0290914002A0914102B09172
:1002D000420230913E0223E0230F2D3720F4019695
:1002E000A11DB11D05C026E8230F0296A11DB11D59
:1002F00020933E0280933F0290934002A0934102DC
:10030000B09342028091430290914402A091450231
:10031000B09146020196A11DB11D809343029093B6
:100320004402A0934502B0934602BF91AF919F91C2
:100330008F913F912F910F900FBE0F901F901895A6
:100340003FB7F8948091430290914402A0914502F6
:10035000B091460226B5A89B05C02F3F19F0019623
:10036000A11DB11D3FBF6627782F892F9A2F620FDD
:10037000711D811D911D42E0660F771F881F991F17
:100380004A95D1F70895CF92DF92EF92FF92CF93E3
:10039000DF936B017C010E94A001EB01C114D10429
:1003A000E104F10489F00E948C050E94A0016C1BFD
:1003B0007D0B683E734090F381E0C81AD108E108D4
:1003C000F108C851DC4FEACFDF91CF91FF90EF9059
:1003D000DF90CF900895789484B5826084BD84B511
:1003E000816084BD85B5826085BD85B5816085BD30
:1003F000EEE6F0E0808181608083E1E8F0E0108249
:10040000808182608083808181608083E0E8F0E089
:10041000808181608083E1EBF0E080818460808373
:10042000E0EBF0E0808181608083E1E9F0E08081B1
:1004300082608083808181608083E0E9F0E0808158
:1004400081608083E1EAF0E0808182608083808146
:1004500081608083E0EAF0E0808181608083E1E276
:10046000F1E0808182608083808181608083E0E22E
:10047000F1E0808181608083EAE7F0E08081846040
:10048000808380818260808380818160808380819D
:10049000806880831092C1000895FC01818D228DB7
:1004A00090E0805C9F4F821B91098F73992708957C
:1004B000FC01918D828D981731F0828DE80FF11D2E
:1004C000858D90E008958FEF9FEF0895FC01918D49
:1004D000828D981761F0828DDF01A80FB11D5D96A6
:1004E0008C91928D9F5F9F73928F90E008958FEF14
:1004F0009FEF089581E294E0892B41F080E090E045
:10050000892B21F00E942104811125C080E090E018
:10051000892B41F080E090E0892B21F00E940000BF
:1005200081111CC080E090E0892B41F080E090E0D8
:10053000892B21F00E940000811113C080E090E01F
:10054000892BA1F080E090E0892B81F00E940000CF
:1005500081110AC008950E940000D8CF0E940000B7
:10056000E1CF0E940000EACF0C9400000895FC0146
:10057000848DDF01A80FB11DA35ABF4F2C91848D2C
:1005800090E001968F739927848FA689B7892C9361
:10059000A089B1898C9180648C93938D848D9813FC
:1005A00006C00288F389E02D80818F7D80830895C5
:1005B000CF93DF93EC01888D8823C9F0EA89FB890A
:1005C000808185FD05C0A889B9898C9186FD0FC001
:1005D0000FB607FCF5CF808185FFF2CFA889B989D6
:1005E0008C9185FFEDCFCE010E94B702E7CFDF915E
:1005F000CF910895CF92DF92FF920F931F93CF93E5
:10060000DF931F92CDB7DEB76C01DC015B969C9146
:100610005B975C968C915C97981307C05096ED9110
:10062000FC915197808185FD32C0F601038D10E069
:100630000F5F1F4F0F731127F02EF601848DF812F4
:1006400011C00FB607FCF9CFD6015096ED91FC9181
:100650005197808185FFF1CFC60169830E94B7025F
:100660006981EBCF838DE80FF11DE35AFF4F608363
:10067000D6015B960C935B975296ED91FC91539744
:1006800080818062808381E058968C930DC0D60172
:100690005696ED91FC91579760835096ED91FC91A1
:1006A000519780818064808381E090E00F90DF919A
:1006B000CF911F910F91FF90DF90CF900895BF923F
:1006C000CF92DF92EF92FF92CF93DF93EC016A011A
:1006D0007B01B22EE889F98982E08083411581EEA1
:1006E000580761057105A1F060E079E08DE390E0C5
:1006F000A70196010E949D05215031094109510928
:100700005695479537952795211580E1380798F03C
:10071000E889F989108260E874E88EE190E0A70129
:1007200096010E949D0521503109410951095695B4
:10073000479537952795EC85FD853083EE85FF85B8
:100740002083188EEC89FD89B082EA89FB8980813B
:1007500080618083EA89FB89808188608083EA895F
:10076000FB89808180688083EA89FB8980818F7D15
:100770008083DF91CF91FF90EF90DF90CF90BF907B
:1007800008951F920F920FB60F9211240BB60F927D
:100790002F938F939F93EF93FF93E0915702F091E4
:1007A00058028081E0915D02F0915E0282FD12C0EC
:1007B0009081809160028F5F8F7320916102821718
:1007C00051F0E0916002F0E0E95BFD4F958F80937E
:1007D000600201C08081FF91EF919F918F912F91D5
:1007E0000F900BBE0F900FBE0F901F9018951F9289
:1007F0000F920FB60F9211240BB60F922F933F93C7
:100800004F935F936F937F938F939F93AF93BF9318
:10081000EF93FF9387E492E00E94B702FF91EF917C
:10082000BF91AF919F918F917F916F915F914F9108
:100830003F912F910F900BBE0F900FBE0F901F9006
:10084000189587E492E00E944D0221E0892B09F47B
:1008500020E0822F089510924A021092490288EEF9
:1008600093E0A0E0B0E080934B0290934C02A09301
:100870004D02B0934E0284E092E090934802809340
:10088000470285EC90E0909354028093530284ECED
:1008900090E0909356028093550280EC90E0909304
:1008A00058028093570281EC90E090935A02809313
:1008B000590282EC90E090935C0280935B0286EC9C
:1008C00090E090935E0280935D021092600210921D
:1008D00061021092620210926302089508950E94CC
:1008E000EB010E946E040E944501CAE7D2E00E941B
:1008F00052012097E1F30E947A02F9CFCF92DF9262
:10090000EF92FF920F931F93CF93DF936C017A01C5
:10091000EB01E60EF71E00E010E0CE15DF0561F0FA
:100920006991D601ED91FC910190F081E02DC60115
:100930001995080F191FF1CFC801DF91CF911F91B1
:100940000F91FF90EF90DF90CF90089561157105A2
:1009500081F0DB010D900020E9F7AD014150510914
:10096000461B570BDC01ED91FC910280F381E02DD9
:10097000199480E090E00895DC01ED91FC910190E4
:10098000F081E02D19940F931F93CF93DF93EC0127
:100990006DE00E94BC048C016AE0CE010E94BC04A0
:1009A000800F911FDF91CF911F910F9108958F922A
:1009B0009F92AF92BF92CF92DF92EF92FF920F93EE
:1009C0001F93CF93DF93CDB7DEB7A1970FB6F894FF
:1009D000DEBF0FBECDBF7C01C42EE52FCB01D22ED2
:1009E00019A221E02D1510F02AE0D22E8E010F5D04
:1009F0001F4F8D2C912CA12CB12C6C2D7E2FA5017D
:100A000094010E949D058C2DD29E801911240150C5
:100A100011098A3014F4805D01C0895CF80180837B
:100A2000211531054105510521F0C22EE32FCA01E0
:100A3000E4CFB801C7010E94A604A1960FB6F894AE
:100A4000DEBF0FBECDBFDF91CF911F910F91FF9001
:100A5000EF90DF90CF90BF90AF909F908F900895D0
:100A6000CF92DF92EF92FF920F931F93CF93DF937A
:100A7000EC016A017B012115310579F4E881F981E6
:100A80000190F081E02D642FDF91CF911F910F91A4
:100A9000FF90EF90DF90CF9019942A303105E9F460
:100AA00077FF1AC06DE20E94BC048C0144275527D1
:100AB000BA014C195D096E097F092AE0CE010E9436
:100AC000D704800F911FDF91CF911F910F91FF905D
:100AD000EF90DF90CF9008952AE0B701A601CE01F4
:100AE000DF91CF911F910F91FF90EF90DF90CF900A
:100AF0000C94D7040F931F93CF93DF93EC010E94C4
:100B000030058C01CE010E94C304800F911FDF913C
:100B1000CF911F910F9108950895DB018F939F93BB
:100B20000E94BF05BF91AF91A29F800D911DA39F11
:100B3000900DB29F900D11240895A1E21A2EAA1BC8
:100B4000BB1BFD010DC0AA1FBB1FEE1FFF1FA2177D
:100B5000B307E407F50720F0A21BB30BE40BF50B7A
:100B6000661F771F881F991F1A9469F76095709503
:100B7000809590959B01AC01BD01CF0108950E9425
:100B8000CE05A59F900DB49F900DA49F800D911D43
:100B9000112408950790F691E02D1994A29FB001B9
:100BA000B39FC001A39F700D811D1124911DB29FA1
:0E0BB000700D811D1124911D0895F894FFCF42
:100BBE0000000000FA027E044D0266025802D802BE
:00000001FF
