:100000000C94C4010C94F5010C94F5010C94F501C9
:100010000C94F5010C94F5010C94F5010C94F50188
:100020000C94F5010C94F5010C94F5010C94F50178
:100030000C94F5010C94F5010C94F5010C94F50168
:100040000C94F5010C94F5010C94F5010C94F50158
:100050000C94F5010C94F5010C94F5010C949B079C
:100060000C94F5010C949C0A0C94D20A0C94F501A2
:100070000C94F5010C94F5010C94F5010C94F50128
:100080000C94F5010C94F5010C94F5010C94F50118
:100090000C94F5010C94F5010C94F5010C946A068E
:1000A0000C94F5010C94F5010C94F5010C94F501F8
:1000B0000C94F5010C94F5010C94F5010C94F501E8
:1000C0000C94F5010C94F5010C94F5010C94F501D8
:1000D0000C94F5010C94F5010C94F5010C94F501C8
:1000E0000C94F501B708BA08A908AD08B308F108DF
:1000F000BE08C208C808CC08D008D608DA08DE084E
:10010000F108E408E808EC080C9411050C949B0431
:100110000C94DA080C94A3040C94CC080C94D0082A
:100120000C94E8080C94590B0C94E3040C94E4042C
:100130000C94B3080C94F1080C94B7080C94B9040F
:100140000C94EC080C94B3090C94DE080C94C808C9
:100150000C9433090C94C1040C94FC0A0C94E4082C
:100160000C949F040C94D5090C94A9080C94410993
:100170000C94D6080C94BE080C9428090C945509CC
:100180000C94060B0C94AD080C94C2080C94BA089D
:100190000C94D4040C94880500000A0B02090C0D81
:1001A0000E0807030401000000000000000000002A
:1001B000000000000000000000000000000000003F
:1001C00000000000121110000000000000000000FC
:1001D000000000000000000000000000000001021C
:1001E0001020200808102040102040800201020149
:1001F0000804020101020408102040808040201001
:100200000804020180040201804020100804020159
:1002100008040201010204081020408001020408C1
:10022000102040800505050507050808080802029A
:1002300002020A0A08080404040401010101010180
:1002400001010303030303030303040707070C0C63
:100250000C0C0C0C0C0C020202020606060606062A
:1002600006060B0B0B0B0B0B0B0B000022002500E3
:1002700028002B002E00310034000201000005018F
:1002800008010B0100407A10F35A00A0724E1809C1
:100290000010A5D4E80000E87648170000E40B54ED
:1002A000020000CA9A3B000000E1F50500008096BC
:1002B0009800000040420F000000A08601000000EE
:1002C000102700000000E8030000000064000000A8
:1002D00000000A00000000000100000000002C7671
:1002E000D888DC674F0823DFC1DFAE59E1B1B7968C
:1002F000E5E3E453C63AE651997696E8E6C28426E9
:10030000EB898C9B62ED407C6FFCEFBC9C9F40F2C4
:10031000BAA56FA5F490055A2AF75C936B6CF96740
:100320006DC11BFCE0E40D47FEF520E6B500D0ED05
:10033000902E0300943577050080841E080000206D
:100340004E0A000000C80C333333330F986E12830B
:100350001141EF8D2114893BE65516CFFEE6DB18DF
:10036000D1844B381BF77C1D901DA4BBE4242032A4
:1003700084725E228100C9F124ECA1E53D279B0433
:10038000A3048805060B9F0411241FBECFEFD1E202
:10039000DEBFCDBF00E00CBF12E0A0E0B2E0EEE9AE
:1003A000F8E200E00BBF02C007900D92A635B1073E
:1003B000D9F723E0A6E5B2E001C01D92A03EB20746
:1003C000E1F713E0C6E8D3E000E006C02297010998
:1003D000FE010BBF0E94620FCE37D10780E00807F5
:1003E000A9F70E944A0B0C943D140C940000DC0108
:1003F000ED91FC910190F081E02D19940F931F93E2
:10040000CF93DF93EB018A0169E670E086E792E023
:100410000E947305BE0186E792E00E94F701B801D1
:1004200086E792E00E94F70161E086E792E00E9491
:10043000750581E090E0DF91CF911F910F910895B4
:10044000CF93DF93EC018CE090E09F8B8E8B4AE0A2
:1004500050E06CE070E08FE393E00E94510C40E0CC
:1004600050E06AE070E0CE010E94FE014FE050E0F3
:100470006AE070E0CE010E94FE0140E050E06AE0D8
:1004800070E0CE010E94FE0189E690E09F8B8E8B8A
:1004900040E450E064E270E0CE010E94FE014CE8CE
:1004A00050E065E270E0CE010E94FE0142E050E0C3
:1004B00066E270E0CE010E94FE0148E850E067E28B
:1004C00070E0CE010E94FE014CE050E068E270E076
:1004D000CE010E94FE014AE050E069E270E0CE01E8
:1004E0000E94FE0141E850E06AE270E0CE010E9405
:1004F000FE0141E050E064E670E0CE010E94FE01A2
:1005000043E050E067E670E0CE010E94FE0140E863
:1005100050E061E070E0CE010E94FE0144E050E056
:1005200064E370E0CE010E94FE0140E050E064E62A
:1005300070E0CE010E94FE0140E050E06AE670E00B
:10054000CE010E94FE0141E050E064E670E0CE0181
:100550000E94FE0140E250E06AE670E0CE010E9497
:10056000FE0143E150E064E370E0CE01DF91CF9102
:100570000C94FE01089508950F931F93CF93DF937A
:100580008B01EA0169E670E086E792E00E9473055C
:10059000B80186E792E00E94F70160E086E792E00A
:1005A0000E94750521E030E041E050E069E670E02E
:1005B00086E792E00E94670586E792E00E94C10408
:1005C000182F69E670E086E792E00E947305BE018D
:1005D00086E792E00E94F70160E086E792E00E94E1
:1005E000750521E030E041E050E069E670E086E723
:1005F00092E00E94670586E792E00E94C104982F6E
:100600008827810F911DDF91CF911F910F91089540
:100610002F923F924F925F926F927F928F929F9212
:10062000AF92BF92CF92DF92EF92FF920F931F9300
:10063000CF93DF93CDB7DEB762970FB6F894DEBFE6
:100640000FBECDBF7C018B0141E450E062E470E05D
:10065000C8010E94BC02BC01882777FD8095982FB5
:100660000E94AE0E20E030EF41E456E40E94E00D1F
:1006700020E030E04AEA53E40E94440EF801628B25
:10068000738B848B958B4BE450E06AE470E0C80177
:100690000E94BC02F801918380834DE450E06CE439
:1006A00070E0C8010E94BC02F801938382834FE48A
:1006B00050E06EE470E0C8010E94BC02F80195832E
:1006C000848343E450E064E470E0C8010E94BC020B
:1006D000F8019587848745E450E066E470E0C8013E
:1006E0000E94BC02F8019787868747E450E068E4DF
:1006F00070E0C8010E94BC02F801918B808B4BE333
:1007000050E06CE370E0C8010E94BC02F8019783DE
:1007100086834DE350E06EE370E0C8010E94BC02A6
:10072000F801918780874FE350E060E470E0C801F2
:100730000E94BC026C01F8019387828780859185B5
:100740009E878D870680F781E02DF88BEF87F80173
:100750000088F189E02DFA8BE98BF8012684378433
:1007600044845584A480B5808280938060807180A9
:10077000428953896489758922E0CE0107960E94D7
:10078000150D66E072E0CE0101960E94C70CBE0115
:10079000695F7F4FCE0101960E94A30D6AE072E06F
:1007A0000E94B60D6CE072E00E94B60DB3010E948B
:1007B000D00D6AE072E00E94B60D60E172E00E9426
:1007C000B60DB4010E94D00D6AE072E00E94B60D31
:1007D00064E172E00E94B60DB5010E94D00D6AE09E
:1007E00072E00E94B60D68E172E00E94B60DB2019F
:1007F0000E94D00D6AE072E00E94B60D6CE172E0DA
:100800000E94B60DB1010E94D00D6AE072E00E9414
:10081000B60D60E272E00E94B60D69897A890E9485
:10082000D00D6AE072E00E94B60D64E272E00E94B0
:10083000B60D6F8578890E94D00D6AE072E00E9443
:10084000B60D64E272E00E94B60D6D857E850E9451
:10085000D00D6AE072E00E94B60D64E272E00E9480
:10086000B60DB6010E94D00D6AE072E00E94B60D8E
:10087000BC01C7010E94F40CCE0101960E94590CE4
:10088000CE0107960E94590CC70162960FB6F894E4
:10089000DEBF0FBECDBFDF91CF911F910F91FF90B3
:1008A000EF90DF90CF90BF90AF909F908F907F9010
:1008B0006F905F904F903F902F90089526E040E812
:1008C00055E260E070E08FE393E00E943A0A86E729
:1008D00092E00E94500568E272E08FE393E00E948C
:1008E000A50B86E592E00C942002CF93DF9300D015
:1008F00000D0CDB7DEB766E572E0CE0101960E946A
:100900000803BE016F5F7F4F8FE393E00E94970B58
:10091000CE0101960E94590C64E670E080E090E000
:100920000E94140826960FB6F894DEBF0FBECDBF06
:10093000DF91CF91089586E592E00C94BA0286E5A6
:1009400092E00C94BB028EE692E00C94B704CF9335
:10095000DF93EC010E94E507688379838A839B8398
:100960006C837D838E839F83DF91CF9108950C9458
:10097000A7048091A60290E02091A702821B910912
:1009800008952091A7028091A602281750F4E22F23
:10099000F0E0E855FD4F808190E02F5F2093A702A3
:1009A00008958FEF9FEF0895E091A7028091A6022E
:1009B000E81730F4F0E0E855FD4F808190E00895AD
:1009C0008FEF9FEF08950895CF92DF92EF92FF92FD
:1009D0000F931F93CF93DF937C01CB018A0120916A
:1009E0008202222389F0EB016B01C40ED51ECC15C7
:1009F000DD0569F06991D701ED91FC910190F081DD
:100A0000E02DC7011995F3CF642F0E944106C8015C
:100A1000DF91CF911F910F91FF90EF90DF90CF90DA
:100A20000895CF93DF931F92CDB7DEB769832091EE
:100A300082022223D1F020918302203240F021E073
:100A400030E0FC013383228380E090E015C0809188
:100A50008402E82FF0E0EB57FD4F998190838F5F80
:100A6000809384028093830205C061E0CE010196E9
:100A70000E94410681E090E00F90DF91CF910895B0
:100A8000FC011382128248EE53E060E070E0448380
:100A900055836683778389E392E091838083089509
:100AA0001092A7021092A602109284021092830262
:100AB0000C948C05862F413208F040E268EA72E01F
:100AC0000E94AA051092A7028093A60208950C9492
:100AD0005A0581E0809382026093A50210928402FD
:100AE0001092830208950C9469050F93062F21E05C
:100AF0004091830265E872E08091A5020E94EE05B4
:100B00001092840210928302109282020F91089533
:100B100086E792E00C9440051092350381E08093C3
:100B200033031092320361E084E10E94F20861E035
:100B300085E10E94F208E9EBF0E080818E7F8083FE
:100B400080818D7F808388E48093B80085E48093E2
:100B5000BC000895413208F03FC0909135039111D7
:100B6000FCCF91E090933503209333032FEF209334
:100B7000C80210920D03240F20930C0390933403AA
:100B800090913403880F892B809334038091320332
:100B9000813041F410923203809134038093BB0082
:100BA00085EC01C085EE8093BC00809135038130D7
:100BB000E1F380910D03841710F440910D032EE0B2
:100BC00033E0FB01D9018A2F821B841718F48D9121
:100BD0008193F9CF842F089580E008950F934132D7
:100BE00008F046C0909135039111FCCF92E09093AC
:100BF0003503009333039FEF9093C80210920D03C7
:100C000040930C03FB016EE073E0DB019A2F961B0F
:100C1000941718F491919D93F9CF10923403909109
:100C20003403880F892B8093340380913203813001
:100C300041F410923203809134038093BB0085EC21
:100C400001C085EE8093BC00222321F08091350302
:100C50008230E1F38091C8028F3F61F08091C80239
:100C6000803251F08091C802803341F483E007C0A4
:100C700081E005C080E003C082E001C084E00F9104
:100C80000895613298F420913503243089F46093FB
:100C9000EA02FC018CEE92E0DC012A2F281B2617C9
:100CA00018F421912D93F9CF80E0089581E0089503
:100CB00082E0089585ED8093BC008091BC0084FDA6
:100CC000FCCF10923503089585EC8093BC00109200
:100CD000350308951F920F920FB60F9211240BB691
:100CE0000F922F933F934F935F936F937F938F93C5
:100CF0009F93AF93BF93EF93FF938091B900887F49
:100D0000803609F49CC068F5883209F45BC090F421
:100D1000803109F454C038F4882309F4F5C08830D0
:100D200009F44DC0F5C0883109F44CC0803209F493
:100D30005DC0EEC0803409F468C048F4803309F423
:100D400055C0883309F0E4C08093C802A8C080353C
:100D500009F44FC0883509F45DC0883409F0D8C063
:100D6000D5C0883909F4C6C0A8F4883709F467C02B
:100D700038F4883609F463C0803709F460C0C8C00D
:100D8000883809F4B7C0803909F45FC0803809F0A9
:100D9000BFC05BC0803B09F485C038F4803A09F4D9
:100DA00066C0883A09F47EC0B3C0803C09F4A6C08E
:100DB000883C09F4A3C0883B09F489C0A9C080918C
:100DC000340310C090910D0380910C03981770F5B7
:100DD000E0910D0381E08E0F80930D03F0E0E25F60
:100DE000FC4F80818093BB0085EC85C08093C80256
:100DF0008DC0E0910D0381E08E0F80930D038091F3
:100E0000BB00F0E0E25FFC4F808390910D03809186
:100E10000C036DC0E0910D0381E08E0F80930D03F4
:100E20008091BB00F0E0E25FFC4F80838091330350
:100E300081116CC081E08093320384EA60C083E05A
:100E4000809335031092C902CFCF8091C9028032BE
:100E500008F050C0E091C90281E08E0F8093C90272
:100E60008091BB00F0E0E653FD4F8083BDCF8091C1
:100E7000C902803230F4E091C902F0E0E653FD4F40
:100E800010820E945A066091C90270E0E0912E0320
:100E9000F0912F038AEC92E019951092C9020E94FA
:100EA000640636C084E0809335031092EB02109202
:100EB000EA02E0913003F091310319958091EA0242
:100EC000811105C081E08093EA021092EC02E0916A
:100ED000EB0281E08E0F8093EB02F0E0E451FD4FD6
:100EE00080818093BB009091EB028091EA02981779
:100EF00008F47ACF85E88093BC000AC085EC809323
:100F0000BC001092350304C01092C8020E945A0619
:100F1000FF91EF91BF91AF919F918F917F916F91D1
:100F20005F914F913F912F910F900BBE0F900FBE8D
:100F30000F901F9018951F920F920FB60F921124C9
:100F40002F933F938F939F93AF93BF9380913703DA
:100F500090913803A0913903B0913A033091360350
:100F600023E0230F2D3720F40196A11DB11D05C0EC
:100F700026E8230F0296A11DB11D2093360380930E
:100F8000370390933803A0933903B0933A038091C9
:100F90003B0390913C03A0913D03B0913E03019629
:100FA000A11DB11D80933B0390933C03A0933D038F
:100FB000B0933E03BF91AF919F918F913F912F913D
:100FC0000F900FBE0F901F9018952FB7F894609157
:100FD0003703709138038091390390913A032FBF02
:100FE00008953FB7F89480913B0390913C03A09102
:100FF0003D03B0913E0326B5A89B05C02F3F19F0D5
:101000000196A11DB11D3FBF6627782F892F9A2F0A
:10101000620F711D811D911D42E0660F771F881FB1
:10102000991F4A95D1F70895CF92DF92EF92FF92E0
:10103000CF93DF936B017C010E94F107EB01C11498
:10104000D104E104F10489F00E94DE0D0E94F10751
:101050006C1B7D0B683E734090F381E0C81AD10889
:10106000E108F108C851DC4FEACFDF91CF91FF9042
:10107000EF90DF90CF900895789484B5826084BD1E
:1010800084B5816084BD85B5826085BD85B581608C
:1010900085BDEEE6F0E0808181608083E1E8F0E0EC
:1010A0001082808182608083808181608083E0E81B
:1010B000F0E0808181608083E1EBF0E080818460FA
:1010C0008083E0EBF0E0808181608083E1E9F0E003
:1010D000808182608083808181608083E0E9F0E0AC
:1010E000808181608083E1EAF0E08081826080839A
:1010F000808181608083E0EAF0E08081816080838C
:10110000E1E2F1E080818260808380818160808380
:10111000E0E2F1E0808181608083EAE7F0E08081B5
:10112000846080838081826080838081816080830D
:101130008081806880831092C100089590E0FC0156
:101140003197E231F10508F04CC0EE58FF4F0C9496
:101150005C0F809180008F7703C0809180008F7D2D
:1011600080938000089580918000877FF9CF84B5B7
:101170008F7702C084B58F7D84BD08958091B000C3
:101180008F7703C08091B0008F7D8093B000089569
:10119000809190008F7707C0809190008F7D03C071
:1011A00080919000877F8093900008958091A000A7
:1011B0008F7707C08091A0008F7D03C08091A00031
:1011C000877F8093A0000895809120018F7707C0CA
:1011D000809120018F7D03C080912001877F8093C3
:1011E000200108950F931F93CF93DF931F92CDB7E4
:1011F000DEB7282F30E0F901E856FE4F8491F9015F
:10120000E252FE4F1491F901EC5DFD4F0491002371
:10121000C9F0882321F069830E949E086981E02F2C
:10122000F0E0EE0FFF1FE659FD4FA591B4919FB777
:10123000F8948C91611103C01095812301C0812B1A
:101240008C939FBF0F90DF91CF911F910F910895C5
:10125000FC01818D228D90E0805C9F4F821B910963
:101260008F7399270895FC01918D828D981731F025
:10127000828DE80FF11D858D90E008958FEF9FEF2F
:101280000895FC01918D828D981761F0828DDF01A8
:10129000A80FB11D5D968C91928D9F5F9F73928F69
:1012A00090E008958FEF9FEF08958CEF9AE0892BDF
:1012B00041F080E090E0892B21F00E94FC0A81112E
:1012C00025C080E090E0892B41F080E090E0892B00
:1012D00021F00E94000081111CC080E090E0892B69
:1012E00041F080E090E0892B21F00E940000811104
:1012F00013C080E090E0892BA1F080E090E0892B82
:1013000081F00E94000081110AC008950E9400002F
:10131000D8CF0E940000E1CF0E940000EACF0C94D9
:1013200000000895FC01848DDF01A80FB11DA35AB0
:10133000BF4F2C91848D90E001968F739927848FF5
:10134000A689B7892C93A089B1898C9180648C93EC
:10135000938D848D981306C00288F389E02D8081D7
:101360008F7D80830895CF93DF93EC01888D882350
:10137000C9F0EA89FB89808185FD05C0A889B98902
:101380008C9186FD0FC00FB607FCF5CF808185FFDD
:10139000F2CFA889B9898C9185FFEDCFCE010E944B
:1013A0009209E7CFDF91CF910895CF92DF92FF921C
:1013B0000F931F93CF93DF931F92CDB7DEB76C01CE
:1013C000DC015B969C915B975C968C915C97981383
:1013D00007C05096ED91FC915197808185FD32C0F8
:1013E000F601038D10E00F5F1F4F0F731127F02ED2
:1013F000F601848DF81211C00FB607FCF9CFD601A3
:101400005096ED91FC915197808185FFF1CFC601F7
:1014100069830E9492096981EBCF838DE80FF11DEA
:10142000E35AFF4F6083D6015B960C935B9752960D
:10143000ED91FC91539780818062808381E0589682
:101440008C930DC0D6015696ED91FC915797608311
:101450005096ED91FC91519780818064808381E06A
:1014600090E00F90DF91CF911F910F91FF90DF904F
:10147000CF900895BF92CF92DF92EF92FF92CF93D9
:10148000DF93EC016A017B01B22EE889F98982E0E1
:101490008083411581EE580761057105A1F060E078
:1014A00079E08DE390E0A70196010E943A0F215068
:1014B00031094109510956954795379527952115C9
:1014C00080E1380798F0E889F989108260E874E8CB
:1014D0008EE190E0A70196010E943A0F2150310958
:1014E000410951095695479537952795EC85FD8516
:1014F0003083EE85FF852083188EEC89FD89B082CC
:10150000EA89FB89808180618083EA89FB89808107
:1015100088608083EA89FB89808180688083EA898A
:10152000FB8980818F7D8083DF91CF91FF90EF9049
:10153000DF90CF90BF9008951F920F920FB60F9239
:1015400011240BB60F922F938F939F93EF93FF93DA
:10155000E0914F03F09150038081E0915503F091A9
:10156000560382FD12C09081809158038F5F8F7364
:1015700020915903821751F0E0915803F0E0E15CAB
:10158000FC4F958F8093580301C08081FF91EF91AC
:101590009F918F912F910F900BBE0F900FBE0F90C8
:1015A0001F9018951F920F920FB60F9211240BB631
:1015B0000F922F933F934F935F936F937F938F93EC
:1015C0009F93AF93BF93EF93FF938FE393E00E94BA
:1015D0009209FF91EF91BF91AF919F918F917F9170
:1015E0006F915F914F913F912F910F900BBE0F9094
:1015F0000FBE0F901F9018958FE393E00E9428096B
:1016000021E0892B09F420E0822F089510924203F3
:101610001092410388EE93E0A0E0B0E08093430392
:1016200090934403A0934503B093460389E492E06A
:101630009093400380933F0385EC90E090934C039C
:1016400080934B0384EC90E090934E0380934D0382
:1016500080EC90E09093500380934F0381EC90E0F6
:10166000909352038093510382EC90E09093540343
:101670008093530386EC90E0909356038093550338
:10168000109258031092590310925A0310925B0360
:10169000089508950E943C080E94490B0E945E0430
:1016A000C5E5D9E00E9475042097E1F30E94550931
:1016B000F9CFCF92DF92EF92FF920F931F93CF93C8
:1016C000DF936C017A01EB01E60EF71E00E010E0FB
:1016D000CE15DF0561F06991D601ED91FC91019085
:1016E000F081E02DC6011995080F191FF1CFC8012F
:1016F000DF91CF911F910F91FF90EF90DF90CF90EE
:1017000008956115710581F0DB010D900020E9F766
:10171000AD0141505109461B570BDC01ED91FC9185
:101720000280F381E02D199480E090E00895DC01BF
:10173000ED91FC91DB0114964D915C9115976D91A3
:101740007C910280F381E02D19940C94810BDC01D3
:10175000ED91FC910190F081E02D19948F929F9270
:10176000AF92BF92CF92DF92EF92FF920F931F93AF
:10177000CF93DF93CDB7DEB7A1970FB6F894DEBF56
:101780000FBECDBF7C01C42EE52FCB01D22E19A2F6
:1017900021E02D1510F02AE0D22E8E010F5D1F4F93
:1017A0008D2C912CA12CB12C6C2D7E2FA501940198
:1017B0000E943A0F8C2DD29E8019112401501109DC
:1017C0008A3014F4805D01C0895CF80180832115A2
:1017D00031054105510521F0C22EE32FCA01E4CFA6
:1017E000B801C7010E94810BA1960FB6F894DEBF25
:1017F0000FBECDBFDF91CF911F910F91FF90EF9062
:10180000DF90CF90BF90AF909F908F900895CF9230
:10181000DF92EF92FF920F931F93CF93DF93EC0130
:101820006A017B012115310579F4E881F981019084
:10183000F081E02D642FDF91CF911F910F91FF90E8
:10184000EF90DF90CF9019942A303105E9F477FFBB
:101850001AC06DE20E94A70B8C0144275527BA01DC
:101860004C195D096E097F092AE0CE010E94AE0B7A
:10187000800F911FDF91CF911F910F91FF90EF90FB
:10188000DF90CF9008952AE0B701A601CE01DF9145
:10189000CF911F910F91FF90EF90DF90CF900C941C
:1018A000AE0B9A01AB01662757FD6095762F0C941D
:1018B000070CFC01808191810C941F10CF93DF9362
:1018C000EC0188819981009711F00E941F10198204
:1018D00018821D821C821B821A82DF91CF9108958B
:1018E0000F931F93CF93DF93EC018B016F5F7F4FBB
:1018F000888199810E94AE10009731F09983888386
:101900001B830A8381E001C080E0DF91CF911F91AA
:101910000F910895CF93DF93EC0188819981892BF2
:1019200029F08A819B818617970760F4CE010E9477
:10193000700C882341F08C819D81892B19F4E881FA
:10194000F981108281E0DF91CF910895EF92FF92AB
:101950000F931F93CF93DF93EC017B018A01BA01B0
:101960000E948A0C811104C0CE010E945E0C07C047
:101970001D830C83B701888199810E94A011CE013B
:10198000DF91CF911F910F91FF90EF900895FC018F
:1019900011821082138212821582148261157105E0
:1019A00059F0FB0101900020E9F7AF0141505109C6
:1019B000461B570B0C94A60C0895CF93DF93EC01B4
:1019C000FB018617970761F06081718161157105D0
:1019D00029F0448155810E94A60C02C00E945E0C31
:1019E000CE01DF91CF910895FC0111821082138204
:1019F0001282158214820C94DD0CCF93DF93EC01DC
:101A00006115710561F0FB0101900020E9F7AF015C
:101A100041505109461B570B0E94A60C02C00E9460
:101A20005E0CCE01DF91CF910895EF92FF920F935C
:101A30001F93CF93DF93CDB7DEB7A1970FB6F8947E
:101A4000DEBF0FBECDBF7C01CB01BA01F701118211
:101A50001082138212821582148242E0420F8E019C
:101A60000F5F1F4F0E94660FBC01C7010E94FD0C53
:101A7000A1960FB6F894DEBF0FBECDBFDF91CF9118
:101A80001F910F91FF90EF900895EF92FF920F93A7
:101A90001F93CF93DF93EC017B010C811D816115B6
:101AA000710511F480E016C04115510591F0040F45
:101AB000151FB8010E948A0C8823A1F3288139815F
:101AC0008C819D81B701820F931F0E94A0111D83FD
:101AD0000C8381E0DF91CF911F910F91FF90EF90E8
:101AE0000895EF92FF920F931F93CF93DF93CDB79B
:101AF000DEB728970FB6F894DEBF0FBECDBF7C01CE
:101B0000CB014AE050E08E010F5F1F4FB8010E94E9
:101B1000A711F80101900020E9F7AF0141505109E8
:101B2000401B510BB801C7010E94450D28960FB606
:101B3000F894DEBF0FBECDBFDF91CF911F910F9103
:101B4000FF90EF900895CF93DF93EC01FB01448168
:101B50005581608171810E94450D811103C0CE01C4
:101B60000E945E0CCE01DF91CF910895CF93DF9359
:101B7000EC016115710569F0FB0101900020E9F7A6
:101B8000AF0141505109461B570B0E94450D811171
:101B900003C0CE010E945E0CCE01DF91CF9108956B
:101BA000CF93DF93EC010E94710D811103C0CE0130
:101BB0000E945E0CCE01DF91CF9108950895505898
:101BC000BB27AA270ED01CC10DD130F012D120F0B6
:101BD00031F49F3F11F41EF402C10EF4E095E7FBCF
:101BE000F8C0E92F1ED180F3BA1762077307840784
:101BF000950718F071F49EF536C10EF4E0950B2EA2
:101C0000BA2FA02D0B01B90190010C01CA01A0014E
:101C10001124FF27591B99F0593F50F4503E68F1A9
:101C20001A16F040A22F232F342F4427585FF3CFEA
:101C3000469537952795A795F0405395C9F77EF4BB
:101C40001F16BA0B620B730B840BBAF09150A1F004
:101C5000FF0FBB1F661F771F881FC2F70EC0BA0F8A
:101C6000621F731F841F48F4879577956795B79512
:101C7000F7959E3F08F0B3CF9395880F08F099270A
:101C8000EE0F9795879508950CD0BAC0B2D040F06A
:101C9000A9D030F021F45F3F19F09BC05111E4C08E
:101CA0009EC0BFD098F39923C9F35523B1F3951B78
:101CB000550BBB27AA2762177307840738F09F5F6D
:101CC0005F4F220F331F441FAA1FA9F333D00E2EDC
:101CD0003AF0E0E830D091505040E695001CCAF749
:101CE00029D0FE2F27D0660F771F881FBB1F26170E
:101CF00037074807AB07B0E809F0BB0B802DBF01E1
:101D0000FF2793585F4F2AF09E3F510568F061C04E
:101D1000ABC05F3FECF3983EDCF386957795679513
:101D2000B795F7959F5FC9F7880F911D9695879591
:101D300097F90895E1E0660F771F881FBB1F6217B0
:101D400073078407BA0720F0621B730B840BBA0B6E
:101D5000EE1F88F7E0950895E89409C097FB3EF4DC
:101D600090958095709561957F4F8F4F9F4F9923E8
:101D7000A9F0F92F96E9BB279395F6958795779566
:101D80006795B795F111F8CFFAF4BB0F11F460FF26
:101D90001BC06F5F7F4F8F4F9F4F16C0882311F07E
:101DA00096E911C0772321F09EE8872F762F05C092
:101DB000662371F096E8862F70E060E02AF09A952D
:101DC000660F771F881FDAF7880F9695879597F922
:101DD000089597F99F6780E870E060E008959FEFAD
:101DE00080EC089500240A941616170618060906B2
:101DF000089500240A941216130614060506089581
:101E0000092E0394000C11F4882352F0BB0F40F408
:101E1000BF2B11F460FF04C06F5F7F4F8F4F9F4F48
:101E2000089557FD9058440F551F59F05F3F71F0CA
:101E30004795880F97FB991F61F09F3F79F0879531
:101E40000895121613061406551FF2CF4695F1DFBA
:101E500008C0161617061806991FF1CF869571054A
:101E6000610508940895E894BB2766277727CB017E
:101E700097F90895A1E21A2EAA1BBB1BFD010DC004
:101E8000AA1FBB1FEE1FFF1FA217B307E407F5072A
:101E900020F0A21BB30BE40BF50B661F771F881F06
:101EA000991F1A9469F760957095809590959B019C
:101EB000AC01BD01CF010895EE0FFF1F0590F49115
:101EC000E02D19940790F691E02D1994EF920F935D
:101ED0001F93CF93DF93E80147FF02C034E101C0B5
:101EE00034E0E42FFF27E7FDF095F7FF03C0F195FD
:101EF000E195F109E32E022F2E2FAE010E94D7119A
:101F0000CE01DF91CF911F910F91EF900895CF9364
:101F1000DF938230910510F482E090E0E091DE03DF
:101F2000F091DF0320E030E0A0E0B0E0309739F13D
:101F30004081518148175907B8F04817590771F483
:101F400082819381109729F013969C938E93129718
:101F50002CC09093DF038093DE0327C02115310549
:101F600031F04217530718F0A901DB0101C0EF015E
:101F70009A01BD01DF010280F381E02DD7CF211549
:101F80003105F9F0281B390B2430310580F48A81A2
:101F90009B816115710521F0FB019383828304C04D
:101FA0009093DF038093DE03FE01329644C0FE016E
:101FB000E20FF31F819391932250310939832883D3
:101FC0003AC02091DC033091DD03232B41F42091B2
:101FD0000202309103023093DD032093DC03209151
:101FE0000002309101022115310541F42DB73EB7B1
:101FF0004091040250910502241B350BE091DC0353
:10200000F091DD03E217F307A0F42E1B3F0B281716
:10201000390778F0AC014E5F5F4F2417350748F061
:102020004E0F5F1F5093DD034093DC038193919328
:1020300002C0E0E0F0E0CF01DF91CF910895CF93AF
:10204000DF93009709F487C0FC0132971382128254
:10205000C091DE03D091DF03209781F4208131818C
:10206000280F391F8091DC039091DD0382179307BD
:1020700079F5F093DD03E093DC036DC0DE0120E031
:1020800030E0AE17BF0750F412964D915C91139754
:102090009D014115510509F1DA01F3CFB383A28304
:1020A00040815181840F951F8A179B0771F48D9190
:1020B0009C911197840F951F0296918380831296AD
:1020C0008D919C911397938382832115310529F477
:1020D000F093DF03E093DE033EC0D9011396FC9337
:1020E000EE9312974D915D91A40FB51FEA17FB0770
:1020F00079F480819181840F951F0296D901119600
:102100009C938E938281938113969C938E931297C6
:10211000E0E0F0E08A819B81009719F0FE01EC017C
:10212000F9CFCE01029628813981820F931F209129
:10213000DC033091DD032817390769F4309729F45F
:102140001092DF031092DE0302C013821282D0933A
:10215000DD03C093DC03DF91CF9108956F927F92EE
:102160008F929F92AF92BF92CF92DF92EF92FF92A7
:102170000F931F93CF93DF93EC01CB01209781F452
:10218000DF91CF911F910F91FF90EF90DF90CF9053
:10219000BF90AF909F908F907F906F900C94870F1F
:1021A000FE01E60FF71F9E0122503109E217F307E7
:1021B00008F4ACC0D9010D911C91119706171707AF
:1021C000B8F00530110508F49FC0A801445051092A
:1021D0004617570708F498C002501109061B170B41
:1021E000019311936D937C93CF010E941F108CC0BB
:1021F0005B01A01AB10A4E01800E911EA091DE0370
:10220000B091DF03612C712C60E070E0109709F44D
:1022100049C0A815B905C9F5ED90FC901197670163
:1022200042E0C40ED11CCA14DB0478F147018A18BD
:102230009B08640142E0C40ED11C1296BC90129718
:102240001396AC91B5E0CB16D10440F0B282A383D3
:1022500091828082D9018D939C9309C00E5F1F4F9C
:102260000E0D1F1DF90111830083EB2DFA2F61154F
:10227000710531F0DB011396FC93EE93129744C085
:10228000F093DF03E093DE033FC06D917C911197E3
:102290006616770608F43B01BD0112960D90BC91BD
:1022A000A02DB4CF6091DC037091DD036815790532
:1022B000E9F468167906D0F44091000250910102C9
:1022C0004115510541F44DB75EB76091040270911C
:1022D0000502461B570BE417F507C0F4F093DD0326
:1022E000E093DC03F901918380830EC00E94870F85
:1022F0007C01009759F0A801BE010E949711CE0100
:102300000E941F10C70104C0CE0102C080E090E00F
:10231000DF91CF911F910F91FF90EF90DF90CF90C1
:10232000BF90AF909F908F907F906F900895FB012A
:10233000DC0102C001900D9241505040D8F7089541
:10234000FB01DC0101900D920020E1F70895453278
:10235000510520F4423010F00C94B211FB011082B0
:10236000CB010895BB274A3031F4992322F4BDE212
:10237000909581959F4F0C94BE11BB27FB0155276B
:10238000AA27880F991FAA1FA41710F0A41B8395D2
:102390005051B9F7A05DAA3308F0A95DA193009749
:1023A00079F7B111B1931192CB010C942D146F9266
:1023B0007F929F92AF92BF92CF92DF92EF92FF9265
:1023C0000F931F93CF93DF93CDB7DEB729970FB647
:1023D000F894DEBF0FBECDBF6A01B22E102F0C33B2
:1023E00020F4FF24F394F00E02C04CE3F42E0F2DE2
:1023F00027E0AE014F5F5F4F0E9455137981272F71
:102400002970213031F0E1FC06C0E0FC06C060E03C
:1024100005C06DE203C06BE201C060E2AE2DA071A9
:1024200073FF36C0662311F084E001C083E08B1592
:1024300010F4B81A01C0B12CA1110BC0F6018B2DFC
:1024400090E2882319F091938150FBCFCB0CD11CE3
:10245000B12C662331F0F601608396012F5F3F4F68
:102460006901C6010396E2FE05C02EE4F601208351
:1024700031E404C02EE6F601208331E63183228365
:10248000FC012B2D30E22223F1F131932150FBCFBF
:1024900072FF40C0662311F084E001C083E08B1519
:1024A00010F4B81A01C0B12CA1110BC0F6018B2D8C
:1024B00090E2882319F091938150FBCFCB0CD11C73
:1024C000B12C662331F0F601608396012F5F3F4FF8
:1024D0006901C6010396E2FE07C029E4F6012083E4
:1024E0002EE4218326E406C029E6F60120832EE6A9
:1024F000218326E62283FC012B2D30E2222319F0D2
:1025000031932150FBCFFC01EB0DF11D10828EEFBA
:102510009FEFB7C0B1E0611101C0B0E04B2F50E0B8
:102520001816190624F49C012F5F3F4F02C021E0CA
:1025300030E0240F351F112329F0412F50E04F5F69
:102540005F4F02C040E050E0420F531F2B2D30E0A0
:102550004217530714F4B41A01C0B12C2E2D287160
:1025600059F4F6012B2D30E2222319F0319321503A
:10257000FBCFCB0CD11CB12CBB2331F0F601608317
:1025800096012F5F3F4F6901A1110BC0F6012B2D62
:1025900030E3222319F031932150FBCFCB0CD11C17
:1025A000B12CF80E0A81372F3071A32E74FF03C0AF
:1025B000013309F4FA941F142CF42F2D293018F04C
:1025C00028E001C021E0682F392F97FF02C060E0AA
:1025D00030E0462F532F612C712C3EE2932EBC012C
:1025E000621B71099B01DC01A41BB50BE1E0F0E06B
:1025F000EC0FFD1FAE0FBF1FE12EF12CF194E19403
:10260000F1084F3FFFEF5F0731F4F6019082B6010A
:102610006F5F7F4F6B01841795074CF024173507C8
:1026200034F4BD01660D771DFB01118101C010E37B
:1026300041505109FFEF6F1A7F0AB6016F5F7F4F5C
:102640004E155F0524F0F60110836B01DACF4817B1
:10265000590739F4063320F4053319F4A11001C0E9
:1026600011E3F6011083FB018B2D90E2882319F012
:1026700091938150FBCFFB01EB0DF11D108280E0A7
:1026800090E029960FB6F894DEBF0FBECDBFDF9164
:10269000CF911F910F91FF90EF90DF90CF90BF905F
:1026A000AF909F907F906F900895283008F027E0BA
:1026B0003327DA01990F311D87FD9160009661057E
:1026C000710539F432602E5F3D9330E32A95E1F7CE
:1026D00008959F3F30F080387105610509F03C5F37
:1026E0003C5F3D93913008F08068911DDF93CF935C
:1026F0001F930F93FF92EF92192F987F9695E92FD2
:1027000096959695E90FFF27E252FD4F99273327BB
:10271000EE24FF24A701E70105900894079428F40C
:10272000360FE71EF81E491F511D660F771F881FC1
:10273000991F0694A1F70590079428F4E70EF81E58
:10274000491F561FC11D770F881F991F661F0694CA
:10275000A1F70590079428F4F80E491F561FC71FCC
:10276000D11D880F991F661F771F0694A1F705904A
:10277000079420F4490F561FC71FD81F990F661FD3
:10278000771F881F0694A9F784911095177041F060
:10279000D695C79557954795F794E7941A95C1F73D
:1027A000E4E8F2E068941590159135916591959162
:1027B00005907FE27395E118F10A430B560BC90BA4
:1027C000D009C0F7E10CF11E431F561FC91FD01DD1
:1027D0007EF4703311F48A95E6CFE894015030F01E
:1027E000080F0AF40027021708F4202F2395022F60
:1027F0007A3328F079E37D932A95E9F710C07D9329
:102800002A9589F6069497956795379517951794A5
:10281000E118F10A430B560BC90BD00998F0239528
:102820007E9173957A3308F070E37C932013B8F7A8
:102830007E9170617D9330F0839571E37D9370E3B9
:102840002A95E1F71124EF90FF900F911F91CF91FE
:10285000DF91992787FD90950895DC01FC01672F92
:1028600071917723E1F7329704C07C916D93708367
:102870006291AE17BF07C8F3089513E0C6E8D3E02E
:1028800000E006C022970109FE010BBF0E94620F03
:0E289000C838D10780E00807A9F7F894FFCFF9
:10289E000000E003800054703A003B0043783A0099
:1028AE0043793A00437A3A0047783A0047793A003A
:1028BE00477A3A0041783A00736574757020646FF8
:1028CE006E65200A00000000001105E404B904C181
:1028DE0004D404E30400000000D509590B28094173
:0628EE00093309B30900E3
:00000001FF
