:100000000C94C1010C94F2010C94F2010C94F201D5
:100010000C94F2010C94F2010C94F2010C94F20194
:100020000C94F2010C94F2010C94F2010C94F20184
:100030000C94F2010C94F2010C94F2010C94F20174
:100040000C94F2010C94F2010C94F2010C94F20164
:100050000C94F2010C94F2010C94F2010C948207BE
:100060000C94F2010C94770A0C94AD0A0C94F201F2
:100070000C94F2010C94F2010C94F2010C94F20134
:100080000C94F2010C94F2010C94F2010C94F20124
:100090000C94F2010C94F2010C94F2010C945106B0
:1000A0000C94F2010C94F2010C94F2010C94F20104
:1000B0000C94F2010C94F2010C94F2010C94F201F4
:1000C0000C94F2010C94F2010C94F2010C94F201E4
:1000D0000C94F2010C94F2010C94F2010C94F201D4
:1000E0000C94F20192089508840888088E08CC08C0
:1000F00099089D08A308A708AB08B108B508B90876
:10010000CC08BF08C308C7080C94A3080C9499082E
:100110000C94B5080C9430090C94BF080C94A804F6
:100120000C94BB040C94AB080C94D70A0C94CC0828
:100130000C94C3080C941C090C9492080C94A00411
:100140000C946F050C94340B0C94CA040C9488081E
:100150000C94C7080C948E090C94B0090C94B10847
:100160000C9498040C94E10A0C94A7080C9495083C
:100170000C9403090C9484080C948E080C94CB0402
:100180000C94F8040C949C040C94B9080C949D08ED
:100190000C940E0900000A0B02090C0D0E0807034F
:1001A000040100000000000000000000000000004A
:1001B000000000000000000000000000000000003F
:1001C00012111000000000000000000000000000FC
:1001D00000000000000000000000010210202008C4
:1001E0000810204010204080020102010804020192
:1001F0000102040810204080804020100804020101
:100200008004020180402010080402010804020159
:1002100001020408102040800102040810204080E0
:1002200005050505070508080808020202020A0A72
:100230000808040404040101010101010101030390
:10024000030303030303040707070C0C0C0C0C0C3B
:100250000C0C0202020206060606060606060B0B38
:100260000B0B0B0B0B0B00002200250028002B00B2
:100270002E003100340002010000050108010B01CD
:1002800000407A10F35A00A0724E18090010A5D44D
:10029000E80000E87648170000E40B54020000CAAA
:1002A0009A3B000000E1F5050000809698000000F0
:1002B00040420F000000A08601000000102700004F
:1002C0000000E803000000006400000000000A00D5
:1002D000000000000100000000002C76D888DC67D8
:1002E0004F0823DFC1DFAE59E1B1B796E5E3E45330
:1002F000C63AE651997696E8E6C28426EB898C9B4D
:1003000062ED407C6FFCEFBC9C9F40F2BAA56FA5EC
:10031000F490055A2AF75C936B6CF9676DC11BFC6E
:10032000E0E40D47FEF520E6B500D0ED902E030089
:10033000943577050080841E080000204E0A0000D6
:1003400000C80C333333330F986E12831141EF8D95
:100350002114893BE65516CFFEE6DB18D1844B38D5
:100360001BF77C1D901DA4BBE424203284725E2206
:100370008100C9F124ECA1E53D2798046F05E10A4D
:100380009C0411241FBECFEFD1E2DEBFCDBF00E041
:100390000CBF12E0A0E0B2E0E4E5F8E200E00BBF41
:1003A00002C007900D92A635B107D9F723E0A6E564
:1003B000B2E001C01D92A83DB207E1F713E0C0E82A
:1003C000D3E000E006C022970109FE010BBF0E94A6
:1003D0003D0FCA37D10780E00807A9F70E94250B17
:1003E0000C9418140C940000DC01ED91FC91019028
:1003F000F081E02D19940F931F93CF93DF93EB01BE
:100400008A0169E670E08EE692E00E945A05BE011C
:100410008EE692E00E94F401B8018EE692E00E941E
:10042000F40161E08EE692E00E945C0581E090E0DC
:10043000DF91CF911F910F910895CF93DF93EC013E
:100440008CE090E09F8B8E8B4AE050E06CE070E097
:1004500087E393E00E942C0C40E050E06AE070E0FB
:10046000CE010E94FB014FE050E06AE070E0CE0157
:100470000E94FB0140E050E06AE070E0CE010E9483
:10048000FB0189E690E09F8B8E8B40E450E064E2B4
:1004900070E0CE010E94FB014CE850E065E270E0A4
:1004A000CE010E94FB0142E050E066E270E0CE0126
:1004B0000E94FB0148E850E067E270E0CE010E9434
:1004C000FB014CE050E068E270E0CE010E94FB01CD
:1004D0004AE050E069E270E0CE010E94FB0141E891
:1004E00050E06AE270E0CE010E94FB0141E050E082
:1004F00064E670E0CE010E94FB0143E050E067E655
:1005000070E0CE010E94FB0140E850E061E070E045
:10051000CE010E94FB0144E050E064E370E0CE01B4
:100520000E94FB0140E050E064E670E0CE010E94D2
:10053000FB0140E050E06AE670E0CE010E94FB0162
:1005400041E050E064E670E0CE010E94FB0140E231
:1005500050E06AE670E0CE010E94FB0143E150E00A
:1005600064E370E0CE01DF91CF910C94FB0108951C
:1005700008950F931F93CF93DF938B01EA0169E6F0
:1005800070E08EE692E00E945A05B8018EE692E095
:100590000E94F40160E08EE692E00E945C0521E09A
:1005A00030E041E050E069E670E08EE692E00E94C3
:1005B0004E058EE692E00E94A804182F69E670E0CE
:1005C0008EE692E00E945A05BE018EE692E00E94FD
:1005D000F40160E08EE692E00E945C0521E030E0EC
:1005E00041E050E069E670E08EE692E00E944E0540
:1005F0008EE692E00E94A804982F8827810F911D13
:10060000DF91CF911F910F9108952F923F924F92BA
:100610005F926F927F928F929F92AF92BF92CF9292
:10062000DF92EF92FF920F931F93CF93DF93CDB79B
:10063000DEB762970FB6F894DEBF0FBECDBF7C0168
:100640008B0141E450E062E470E0C8010E94B9020D
:10065000BC01882777FD8095982F0E94890E20E0A5
:1006600030EF41E456E40E94BB0D20E030E04AEA5E
:1006700053E40E941F0EF801628B738B848B958B61
:100680004BE450E06AE470E0C8010E94B902F8014E
:10069000918380834DE450E06CE470E0C8010E94D7
:1006A000B902F801938382834FE450E06EE470E076
:1006B000C8010E94B902F8019583848343E450E0A5
:1006C00064E470E0C8010E94B902F801958784874C
:1006D00045E450E066E470E0C8010E94B902F80108
:1006E0009787868747E450E068E470E0C8010E947D
:1006F000B902F801918B808B4BE350E06CE370E022
:10070000C8010E94B902F801978386834DE350E047
:100710006EE370E0C8010E94B902F80191878087FA
:100720004FE350E060E470E0C8010E94B9026C0140
:10073000F80193878287808591859E878D870680C3
:10074000F781E02DF88BEF87F8010088F189E02D23
:10075000FA8BE98BF8012684378444845584A4807D
:10076000B5808280938060807180428953896489DA
:10077000758922E0CE0107960E94F00C66E072E0D7
:10078000CE0101960E94A20CBE01695F7F4FCE018F
:1007900001960E947E0D6AE072E00E94910D6CE06D
:1007A00072E00E94910DB3010E94AB0D6AE072E00D
:1007B0000E94910D60E172E00E94910DB4010E94CF
:1007C000AB0D6AE072E00E94910D64E172E00E945C
:1007D000910DB5010E94AB0D6AE072E00E94910D8F
:1007E00068E172E00E94910DB2010E94AB0D6AE0D7
:1007F00072E00E94910D6CE172E00E94910DB101D6
:100800000E94AB0D6AE072E00E94910D60E272E01E
:100810000E94910D69897A890E94AB0D6AE072E0AD
:100820000E94910D64E272E00E94910D6F857889BB
:100830000E94AB0D6AE072E00E94910D64E272E0EA
:100840000E94910D6D857E850E94AB0D6AE072E07D
:100850000E94910D64E272E00E94910DB6010E9427
:10086000AB0D6AE072E00E94910DBC01C7010E94CD
:10087000CF0CCE0101960E94340CCE0107960E9447
:10088000340CC70162960FB6F894DEBF0FBECDBF21
:10089000DF91CF911F910F91FF90EF90DF90CF905C
:1008A000BF90AF909F908F907F906F905F904F9090
:1008B0003F902F90089526E040E855E260E070E018
:1008C00087E393E00E94150A8EE692E00E943705C6
:1008D00068E272E087E393E00E94800B86E592E095
:1008E0000C941D02CF93DF9300D000D0CDB7DEB7BC
:1008F00066E572E0CE0101960E940503BE016F5FBE
:100900007F4F87E393E00E94720BCE0101960E9415
:10091000340C64E670E080E090E00E94EF072696D9
:100920000FB6F894DEBF0FBECDBFDF91CF91089513
:1009300086E592E00C94B70286E592E00C94B8024A
:1009400080919E0290E020919F02821B9109089560
:1009500020919F0280919E02281750F4E22FF0E030
:10096000E056FD4F808190E02F5F20939F02089515
:100970008FEF9FEF0895E0919F0280919E02E8170C
:1009800030F4F0E0E056FD4F808190E008958FEF65
:100990009FEF08950895CF92DF92EF92FF920F9309
:1009A0001F93CF93DF937C01CB018A0120917A02C0
:1009B000222389F0EB016B01C40ED51ECC15DD0599
:1009C00069F06991D701ED91FC910190F081E02DE2
:1009D000C7011995F3CF642F0E942806C801DF9143
:1009E000CF911F910F91FF90EF90DF90CF900895DE
:1009F000CF93DF931F92CDB7DEB7698320917A0240
:100A00002223D1F020917B02203240F021E030E01F
:100A1000FC013383228380E090E015C080917C024A
:100A2000E82FF0E0E358FD4F998190838F5F80932A
:100A30007C0280937B0205C061E0CE0101960E949A
:100A4000280681E090E00F90DF91CF910895FC019E
:100A50001382128248EE53E060E070E044835583D5
:100A60006683778389E392E091838083089510926F
:100A70009F0210929E0210927C0210927B020C94B4
:100A80007305862F413208F040E260EA72E00E946E
:100A9000910510929F0280939E0208950C94410547
:100AA00081E080937A0260939D0210927C02109202
:100AB0007B0208950C9450050F93062F21E040917E
:100AC0007B026DE772E080919D020E94D505109235
:100AD0007C0210927B0210927A020F9108958EE6AA
:100AE00092E00C94270510922D0381E080932B0354
:100AF00010922A0361E084E10E94CD0861E085E163
:100B00000E94CD08E9EBF0E080818E7F80838081B8
:100B10008D7F808388E48093B80085E48093BC0057
:100B20000895413208F03FC090912D039111FCCF00
:100B300091E090932D0320932B032FEF2093C0027D
:100B400010920503240F2093040390932C0390919B
:100B50002C03880F892B80932C0380912A038130EA
:100B600041F410922A0380912C038093BB0085EC02
:100B700001C085EE8093BC0080912D038130E1F3AC
:100B800080910503841710F44091050326E033E0BB
:100B9000FB01D9018A2F821B841718F48D91819350
:100BA000F9CF842F089580E008950F93413208F023
:100BB00046C090912D039111FCCF92E090932D03AC
:100BC00000932B039FEF9093C00210920503409374
:100BD0000403FB0166E073E0DB019A2F961B941778
:100BE00018F491919D93F9CF10922C0390912C03BE
:100BF000880F892B80932C0380912A03813041F444
:100C000010922A0380912C038093BB0085EC01C0D5
:100C100085EE8093BC00222321F080912D03823049
:100C2000E1F38091C0028F3F61F08091C002803279
:100C300051F08091C002803341F483E007C081E02D
:100C400005C080E003C082E001C084E00F910895F8
:100C5000613298F420912D03243089F46093E202EC
:100C6000FC0184EE92E0DC012A2F281B261718F4E1
:100C700021912D93F9CF80E0089581E0089582E0DD
:100C8000089585ED8093BC008091BC0084FDFCCF6D
:100C900010922D03089585EC8093BC0010922D03D3
:100CA00008951F920F920FB60F9211240BB60F9258
:100CB0002F933F934F935F936F937F938F939F9364
:100CC000AF93BF93EF93FF938091B900887F8036F5
:100CD00009F49CC068F5883209F45BC090F4803157
:100CE00009F454C038F4882309F4F5C0883009F4B5
:100CF0004DC0F5C0883109F44CC0803209F45DC0A4
:100D0000EEC0803409F468C048F4803309F455C05B
:100D1000883309F0E4C08093C002A8C0803509F48C
:100D20004FC0883509F45DC0883409F0D8C0D5C0FB
:100D3000883909F4C6C0A8F4883709F467C038F4C4
:100D4000883609F463C0803709F460C0C8C08838A9
:100D500009F4B7C0803909F45FC0803809F0BFC01A
:100D60005BC0803B09F485C038F4803A09F466C062
:100D7000883A09F47EC0B3C0803C09F4A6C0883C20
:100D800009F4A3C0883B09F489C0A9C080912C0351
:100D900010C09091050380910403981770F5E091BD
:100DA000050381E08E0F80930503F0E0EA5FFC4FBE
:100DB00080818093BB0085EC85C08093C0028DC08C
:100DC000E091050381E08E0F809305038091BB00C5
:100DD000F0E0EA5FFC4F808390910503809104036B
:100DE0006DC0E091050381E08E0F80930503809133
:100DF000BB00F0E0EA5FFC4F808380912B03811100
:100E00006CC081E080932A0384EA60C083E0809311
:100E10002D031092C102CFCF8091C102803208F021
:100E200050C0E091C10281E08E0F8093C102809199
:100E3000BB00F0E0EE53FD4F8083BDCF8091C10237
:100E4000803230F4E091C102F0E0EE53FD4F1082A9
:100E50000E9441066091C10270E0E0912603F0918A
:100E6000270382EC92E019951092C1020E944B0672
:100E700036C084E080932D031092E3021092E202C8
:100E8000E0912803F091290319958091E2028111E4
:100E900005C081E08093E2021092E402E091E30257
:100EA00081E08E0F8093E302F0E0EC51FD4F8081F2
:100EB0008093BB009091E3028091E202981708F4BE
:100EC0007ACF85E88093BC000AC085EC8093BC0093
:100ED00010922D0304C01092C0020E944106FF919F
:100EE000EF91BF91AF919F918F917F916F915F91A2
:100EF0004F913F912F910F900BBE0F900FBE0F900F
:100F00001F9018951F920F920FB60F9211242F93D6
:100F10003F938F939F93AF93BF9380912F039091B3
:100F20003003A0913103B091320330912E0323E0BE
:100F3000230F2D3720F40196A11DB11D05C026E811
:100F4000230F0296A11DB11D20932E0380932F0322
:100F500090933003A0933103B09332038091330315
:100F600090913403A0913503B09136030196A11DF1
:100F7000B11D8093330390933403A0933503B09352
:100F80003603BF91AF919F918F913F912F910F9019
:100F90000FBE0F901F9018953FB7F89480913303C0
:100FA00090913403A0913503B091360326B5A89BE8
:100FB00005C02F3F19F00196A11DB11D3FBF662747
:100FC000782F892F9A2F620F711D811D911D42E08C
:100FD000660F771F881F991F4A95D1F70895CF9202
:100FE000DF92EF92FF92CF93DF936B017C010E941F
:100FF000CC07EB01C114D104E104F10489F00E9493
:10100000B90D0E94CC076C1B7D0B683E734090F3BA
:1010100081E0C81AD108E108F108C851DC4FEACFD5
:10102000DF91CF91FF90EF90DF90CF90089578946B
:1010300084B5826084BD84B5816084BD85B58260DD
:1010400085BD85B5816085BDEEE6F0E0808181607B
:101050008083E1E8F0E0108280818260808380817B
:1010600081608083E0E8F0E0808181608083E1EB53
:10107000F0E0808184608083E0EBF0E0808181603B
:101080008083E1E9F0E080818260808380818160FB
:101090008083E0E9F0E0808181608083E1EAF0E034
:1010A000808182608083808181608083E0EAF0E0DB
:1010B000808181608083E1E2F1E0808182608083D1
:1010C000808181608083E0E2F1E0808181608083C3
:1010D000EAE7F0E0808184608083808182608083A1
:1010E0008081816080838081806880831092C100CC
:1010F000089590E0FC013197E231F10508F04CC011
:10110000EE58FF4F0C94370F809180008F7703C00B
:10111000809180008F7D8093800008958091800071
:10112000877FF9CF84B58F7702C084B58F7D84BD6A
:1011300008958091B0008F7703C08091B0008F7DBB
:101140008093B0000895809190008F7707C08091C0
:1011500090008F7D03C080919000877F80939000E6
:1011600008958091A0008F7707C08091A0008F7DA7
:1011700003C08091A000877F8093A0000895809194
:1011800020018F7707C0809120018F7D03C080915F
:101190002001877F8093200108950F931F93CF93A1
:1011A000DF931F92CDB7DEB7282F30E0F901EC5660
:1011B000FE4F8491F901E652FE4F1491F901E05E71
:1011C000FD4F04910023C9F0882321F069830E9418
:1011D00079086981E02FF0E0EE0FFF1FEA59FD4F1B
:1011E000A591B4919FB7F8948C91611103C01095AB
:1011F000812301C0812B8C939FBF0F90DF91CF91F2
:101200001F910F910895FC01818D228D90E0805CEB
:101210009F4F821B91098F7399270895FC01918D2F
:10122000828D981731F0828DE80FF11D858D90E049
:1012300008958FEF9FEF0895FC01918D828D98178F
:1012400061F0828DDF01A80FB11D5D968C91928DAA
:101250009F5F9F73928F90E008958FEF9FEF0895A7
:1012600087ED9AE0892B41F080E090E0892B21F016
:101270000E94D70A811125C080E090E0892B41F0BF
:1012800080E090E0892B21F00E94000081111CC0B9
:1012900080E090E0892B41F080E090E0892B21F004
:1012A0000E940000811113C080E090E0892BA1F022
:1012B00080E090E0892B81F00E94000081110AC03B
:1012C00008950E940000D8CF0E940000E1CF0E9444
:1012D0000000EACF0C9400000895FC01848DDF012A
:1012E000A80FB11DA35ABF4F2C91848D90E0019699
:1012F0008F739927848FA689B7892C93A089B18988
:101300008C9180648C93938D848D981306C0028891
:10131000F389E02D80818F7D80830895CF93DF93C3
:10132000EC01888D8823C9F0EA89FB89808185FDDD
:1013300005C0A889B9898C9186FD0FC00FB607FC3E
:10134000F5CF808185FFF2CFA889B9898C9185FF7F
:10135000EDCFCE010E946D09E7CFDF91CF910895C7
:10136000CF92DF92FF920F931F93CF93DF931F9241
:10137000CDB7DEB76C01DC015B969C915B975C9608
:101380008C915C97981307C05096ED91FC91519702
:10139000808185FD32C0F601038D10E00F5F1F4F85
:1013A0000F731127F02EF601848DF81211C00FB6BD
:1013B00007FCF9CFD6015096ED91FC9151978081B1
:1013C00085FFF1CFC60169830E946D096981EBCF6A
:1013D000838DE80FF11DE35AFF4F6083D6015B96C2
:1013E0000C935B975296ED91FC91539780818062AC
:1013F000808381E058968C930DC0D6015696ED916E
:10140000FC91579760835096ED91FC9151978081A4
:101410008064808381E090E00F90DF91CF911F91F5
:101420000F91FF90DF90CF900895BF92CF92DF92FF
:10143000EF92FF92CF93DF93EC016A017B01B22E12
:10144000E889F98982E08083411581EE58076105BA
:101450007105A1F060E079E08DE390E0A7019601CD
:101460000E94150F215031094109510956954795A0
:1014700037952795211580E1380798F0E889F98993
:10148000108260E874E88EE190E0A70196010E9466
:10149000150F215031094109510956954795379546
:1014A0002795EC85FD853083EE85FF852083188E9A
:1014B000EC89FD89B082EA89FB8980818061808323
:1014C000EA89FB89808188608083EA89FB89808141
:1014D00080688083EA89FB8980818F7D8083DF91AA
:1014E000CF91FF90EF90DF90CF90BF9008951F9223
:1014F0000F920FB60F9211240BB60F922F938F936A
:101500009F93EF93FF93E0914703F091480380810D
:10151000E0914D03F0914E0382FD12C090818091C5
:1015200050038F5F8F7320915103821751F0E09128
:101530005003F0E0E95CFC4F958F8093500301C0AD
:101540008081FF91EF919F918F912F910F900BBE12
:101550000F900FBE0F901F9018951F920F920FB60D
:101560000F9211240BB60F922F933F934F935F93DB
:101570006F937F938F939F93AF93BF93EF93FF935B
:1015800087E393E00E946D09FF91EF91BF91AF91C6
:101590009F918F917F916F915F914F913F912F918B
:1015A0000F900BBE0F900FBE0F901F90189587E302
:1015B00093E00E94030921E0892B09F420E0822FA7
:1015C000089510923A031092390388EE93E0A0E058
:1015D000B0E080933B0390933C03A0933D03B09312
:1015E0003E0389E492E0909338038093370385ECBF
:1015F00090E0909344038093430384EC90E09093B5
:1016000046038093450380EC90E0909348038093D9
:10161000470381EC90E090934A038093490382EC66
:1016200090E090934C0380934B0386EC90E0909372
:101630004E0380934D031092500310925103109269
:10164000520310925303089508950E9417080E94B0
:10165000240B0E945B04C0E3D9E00E94720420972F
:10166000E1F30E943009F9CFCF92DF92EF92FF921F
:101670000F931F93CF93DF936C017A01EB01E60E7A
:10168000F71E00E010E0CE15DF0561F06991D6018C
:10169000ED91FC910190F081E02DC6011995080FA4
:1016A000191FF1CFC801DF91CF911F910F91FF90CA
:1016B000EF90DF90CF9008956115710581F0DB0107
:1016C0000D900020E9F7AD0141505109461B570B21
:1016D000DC01ED91FC910280F381E02D199480E012
:1016E00090E00895DC01ED91FC91DB0114964D91A1
:1016F0005C9115976D917C910280F381E02D199496
:101700000C945C0BDC01ED91FC910190F081E02DDB
:1017100019948F929F92AF92BF92CF92DF92EF92E5
:10172000FF920F931F93CF93DF93CDB7DEB7A197AF
:101730000FB6F894DEBF0FBECDBF7C01C42EE52FDF
:10174000CB01D22E19A221E02D1510F02AE0D22EC5
:101750008E010F5D1F4F8D2C912CA12CB12C6C2D67
:101760007E2FA50194010E94150F8C2DD29E801909
:101770001124015011098A3014F4805D01C0895C84
:10178000F8018083211531054105510521F0C22E54
:10179000E32FCA01E4CFB801C7010E945C0BA196F8
:1017A0000FB6F894DEBF0FBECDBFDF91CF911F9172
:1017B0000F91FF90EF90DF90CF90BF90AF909F90F0
:1017C0008F900895CF92DF92EF92FF920F931F9325
:1017D000CF93DF93EC016A017B012115310579F488
:1017E000E881F9810190F081E02D642FDF91CF91A4
:1017F0001F910F91FF90EF90DF90CF9019942A30B6
:101800003105E9F477FF1AC06DE20E94820B8C016A
:1018100044275527BA014C195D096E097F092AE052
:10182000CE010E94890B800F911FDF91CF911F91F4
:101830000F91FF90EF90DF90CF9008952AE0B701CD
:10184000A601CE01DF91CF911F910F91FF90EF90F4
:10185000DF90CF900C94890B9A01AB01662757FD5E
:101860006095762F0C94E20BFC01808191810C94A1
:10187000FA0FCF93DF93EC0188819981009711F0E3
:101880000E94FA0F198218821D821C821B821A8202
:10189000DF91CF9108950F931F93CF93DF93EC01C6
:1018A0008B016F5F7F4F888199810E94891000971B
:1018B00031F0998388831B830A8381E001C080E033
:1018C000DF91CF911F910F910895CF93DF93EC019A
:1018D00088819981892B29F08A819B8186179707B6
:1018E00060F4CE010E944B0C882341F08C819D81D5
:1018F000892B19F4E881F981108281E0DF91CF9181
:101900000895EF92FF920F931F93CF93DF93EC0113
:101910007B018A01BA010E94650C811104C0CE01CD
:101920000E94390C07C01D830C83B70188819981FF
:101930000E947B11CE01DF91CF911F910F91FF90FB
:10194000EF900895FC011182108213821282158299
:1019500014826115710559F0FB0101900020E9F72F
:10196000AF0141505109461B570B0C94810C08954F
:10197000CF93DF93EC01FB018617970761F060813D
:1019800071816115710529F0448155810E94810C96
:1019900002C00E94390CCE01DF91CF910895FC0165
:1019A0001182108213821282158214820C94B80C58
:1019B000CF93DF93EC016115710561F0FB0101909C
:1019C0000020E9F7AF0141505109461B570B0E9417
:1019D000810C02C00E94390CCE01DF91CF91089595
:1019E000EF92FF920F931F93CF93DF93CDB7DEB7A4
:1019F000A1970FB6F894DEBF0FBECDBF7C01CB011F
:101A0000BA01F701118210821382128215821482A8
:101A100042E0420F8E010F5F1F4F0E94410FBC0139
:101A2000C7010E94D80CA1960FB6F894DEBF0FBE76
:101A3000CDBFDF91CF911F910F91FF90EF9008954F
:101A4000EF92FF920F931F93CF93DF93EC017B01F3
:101A50000C811D816115710511F480E016C04115DE
:101A6000510591F0040F151FB8010E94650C8823E1
:101A7000A1F3288139818C819D81B701820F931F49
:101A80000E947B111D830C8381E0DF91CF911F9118
:101A90000F91FF90EF900895EF92FF920F931F9395
:101AA000CF93DF93CDB7DEB728970FB6F894DEBF9C
:101AB0000FBECDBF7C01CB014AE050E08E010F5F2D
:101AC0001F4FB8010E948211F80101900020E9F730
:101AD000AF0141505109401B510BB801C7010E9491
:101AE000200D28960FB6F894DEBF0FBECDBFDF9154
:101AF000CF911F910F91FF90EF900895CF93DF93B7
:101B0000EC01FB0144815581608171810E94200DAF
:101B1000811103C0CE010E94390CCE01DF91CF911B
:101B20000895CF93DF93EC016115710569F0FB0116
:101B300001900020E9F7AF0141505109461B570BB6
:101B40000E94200D811103C0CE010E94390CCE01EC
:101B5000DF91CF910895CF93DF93EC010E944C0D5C
:101B6000811103C0CE010E94390CCE01DF91CF91CB
:101B7000089508955058BB27AA270ED01CC10DD137
:101B800030F012D120F031F49F3F11F41EF402C165
:101B90000EF4E095E7FBF8C0E92F1ED180F3BA17E9
:101BA000620773078407950718F071F49EF536C134
:101BB0000EF4E0950B2EBA2FA02D0B01B901900168
:101BC0000C01CA01A0011124FF27591B99F0593FAC
:101BD00050F4503E68F11A16F040A22F232F342FF4
:101BE0004427585FF3CF469537952795A795F04042
:101BF0005395C9F77EF41F16BA0B620B730B840B57
:101C0000BAF09150A1F0FF0FBB1F661F771F881F0E
:101C1000C2F70EC0BA0F621F731F841F48F4879566
:101C200077956795B795F7959E3F08F0B3CF939555
:101C3000880F08F09927EE0F9795879508950CD097
:101C4000BAC0B2D040F0A9D030F021F45F3F19F013
:101C50009BC05111E4C09EC0BFD098F39923C9F333
:101C60005523B1F3951B550BBB27AA2762177307A2
:101C7000840738F09F5F5F4F220F331F441FAA1F56
:101C8000A9F333D00E2E3AF0E0E830D09150504016
:101C9000E695001CCAF729D0FE2F27D0660F771FC4
:101CA000881FBB1F261737074807AB07B0E809F0A6
:101CB000BB0B802DBF01FF2793585F4F2AF09E3F3B
:101CC000510568F061C0ABC05F3FECF3983EDCF3B8
:101CD000869577956795B795F7959F5FC9F7880FB4
:101CE000911D9695879597F90895E1E0660F771F06
:101CF000881FBB1F621773078407BA0720F0621B97
:101D0000730B840BBA0BEE1F88F7E0950895E894E7
:101D100009C097FB3EF490958095709561957F4F33
:101D20008F4F9F4F9923A9F0F92F96E9BB279395E1
:101D3000F695879577956795B795F111F8CFFAF4F1
:101D4000BB0F11F460FF1BC06F5F7F4F8F4F9F4F22
:101D500016C0882311F096E911C0772321F09EE880
:101D6000872F762F05C0662371F096E8862F70E0E6
:101D700060E02AF09A95660F771F881FDAF7880FC0
:101D80009695879597F9089597F99F6780E870E091
:101D900060E008959FEF80EC089500240A941616E1
:101DA000170618060906089500240A941216130649
:101DB000140605060895092E0394000C11F48823D7
:101DC00052F0BB0F40F4BF2B11F460FF04C06F5FF3
:101DD0007F4F8F4F9F4F089557FD9058440F551FC9
:101DE00059F05F3F71F04795880F97FB991F61F09D
:101DF0009F3F79F087950895121613061406551F14
:101E0000F2CF4695F1DF08C0161617061806991F7F
:101E1000F1CF86957105610508940895E894BB2774
:101E200066277727CB0197F90895A1E21A2EAA1BFE
:101E3000BB1BFD010DC0AA1FBB1FEE1FFF1FA2177A
:101E4000B307E407F50720F0A21BB30BE40BF50B77
:101E5000661F771F881F991F1A9469F76095709500
:101E6000809590959B01AC01BD01CF010895EE0FC7
:101E7000FF1F0590F491E02D19940790F691E02D45
:101E80001994EF920F931F93CF93DF93E80147FFCD
:101E900002C034E101C034E0E42FFF27E7FDF095F4
:101EA000F7FF03C0F195E195F109E32E022F2E2FE4
:101EB000AE010E94B211CE01DF91CF911F910F911F
:101EC000EF900895CF93DF938230910510F482E074
:101ED00090E0E091D603F091D70320E030E0A0E05D
:101EE000B0E0309739F14081518148175907B8F077
:101EF0004817590771F482819381109729F013963E
:101F00009C938E9312972CC09093D7038093D60303
:101F100027C02115310531F04217530718F0A901E8
:101F2000DB0101C0EF019A01BD01DF010280F381F5
:101F3000E02DD7CF21153105F9F0281B390B2430BE
:101F4000310580F48A819B816115710521F0FB01C7
:101F50009383828304C09093D7038093D603FE01BA
:101F6000329644C0FE01E20FF31F819391932250F9
:101F70003109398328833AC02091D4033091D503A5
:101F8000232B41F420910202309103023093D503B8
:101F90002093D403209100023091010221153105D4
:101FA00041F42DB73EB74091040250910502241B25
:101FB000350BE091D403F091D503E217F307A0F4B9
:101FC0002E1B3F0B2817390778F0AC014E5F5F4F8F
:101FD0002417350748F04E0F5F1F5093D5034093E9
:101FE000D4038193919302C0E0E0F0E0CF01DF9150
:101FF000CF910895CF93DF93009709F487C0FC0138
:10200000329713821282C091D603D091D7032097C2
:1020100081F420813181280F391F8091D403909160
:10202000D5038217930779F5F093D503E093D40392
:102030006DC0DE0120E030E0AE17BF0750F412960D
:102040004D915C9113979D014115510509F1DA01FC
:10205000F3CFB383A28340815181840F951F8A17E8
:102060009B0771F48D919C911197840F951F029697
:102070009183808312968D919C9113979383828391
:102080002115310529F4F093D703E093D6033EC020
:10209000D9011396FC93EE9312974D915D91A40F85
:1020A000B51FEA17FB0779F480819181840F951F92
:1020B0000296D90111969C938E93828193811396F7
:1020C0009C938E931297E0E0F0E08A819B810097C9
:1020D00019F0FE01EC01F9CFCE0102962881398179
:1020E000820F931F2091D4033091D503281739070D
:1020F00069F4309729F41092D7031092D60302C0E6
:1021000013821282D093D503C093D403DF91CF9171
:1021100008956F927F928F929F92AF92BF92CF92CB
:10212000DF92EF92FF920F931F93CF93DF93EC0117
:10213000CB01209781F4DF91CF911F910F91FF90F8
:10214000EF90DF90CF90BF90AF909F908F907F9057
:102150006F900C94620FFE01E60FF71F9E01225054
:102160003109E217F30708F4ACC0D9010D911C91B5
:10217000119706171707B8F00530110508F49FC02E
:10218000A801445051094617570708F498C0025057
:102190001109061B170B019311936D937C93CF01CB
:1021A0000E94FA0F8CC05B01A01AB10A4E01800E8A
:1021B000911EA091D603B091D703612C712C60E0E1
:1021C00070E0109709F449C0A815B905C9F5ED905C
:1021D000FC901197670142E0C40ED11CCA14DB04C5
:1021E00078F147018A189B08640142E0C40ED11CB3
:1021F0001296BC9012971396AC91B5E0CB16D10411
:1022000040F0B282A38391828082D9018D939C9306
:1022100009C00E5F1F4F0E0D1F1DF90111830083B2
:10222000EB2DFA2F6115710531F0DB011396FC934C
:10223000EE93129744C0F093D703E093D6033FC0C8
:102240006D917C9111976616770608F43B01BD01EC
:1022500012960D90BC91A02DB4CF6091D4037091D3
:10226000D50368157905E9F468167906D0F440912C
:102270000002509101024115510541F44DB75EB77E
:102280006091040270910502461B570BE417F50795
:10229000C0F4F093D503E093D403F90191838083D4
:1022A0000EC00E94620F7C01009759F0A801BE0188
:1022B0000E947211CE010E94FA0FC70104C0CE0124
:1022C00002C080E090E0DF91CF911F910F91FF90CD
:1022D000EF90DF90CF90BF90AF909F908F907F90C6
:1022E0006F900895FB01DC0102C001900D924150F6
:1022F0005040D8F70895FB01DC0101900D920020B9
:10230000E1F708954532510520F4423010F00C9465
:102310008D11FB011082CB010895BB274A3031F4A7
:10232000992322F4BDE2909581959F4F0C949911C9
:10233000BB27FB015527AA27880F991FAA1FA4179F
:1023400010F0A41B83955051B9F7A05DAA3308F093
:10235000A95DA193009779F7B111B1931192CB01C7
:102360000C9408146F927F929F92AF92BF92CF927B
:10237000DF92EF92FF920F931F93CF93DF93CDB72E
:10238000DEB729970FB6F894DEBF0FBECDBF6A0146
:10239000B22E102F0C3320F4FF24F394F00E02C061
:1023A0004CE3F42E0F2D27E0AE014F5F5F4F0E94EC
:1023B00030137981272F2970213031F0E1FC06C0DC
:1023C000E0FC06C060E005C06DE203C06BE201C046
:1023D00060E2AE2DA07173FF36C0662311F084E079
:1023E00001C083E08B1510F4B81A01C0B12CA11103
:1023F0000BC0F6018B2D90E2882319F09193815048
:10240000FBCFCB0CD11CB12C662331F0F6016083DD
:1024100096012F5F3F4F6901C6010396E2FE05C09A
:102420002EE4F601208331E404C02EE6F601208379
:1024300031E631832283FC012B2D30E22223F1F19E
:1024400031932150FBCF72FF40C0662311F084E02E
:1024500001C083E08B1510F4B81A01C0B12CA11192
:102460000BC0F6018B2D90E2882319F091938150D7
:10247000FBCFCB0CD11CB12C662331F0F60160836D
:1024800096012F5F3F4F6901C6010396E2FE07C028
:1024900029E4F60120832EE4218326E406C029E600
:1024A000F60120832EE6218326E62283FC012B2DD4
:1024B00030E2222319F031932150FBCFFC01EB0DC8
:1024C000F11D10828EEF9FEFB7C0B1E0611101C026
:1024D000B0E04B2F50E01816190624F49C012F5F32
:1024E0003F4F02C021E030E0240F351F112329F0B7
:1024F000412F50E04F5F5F4F02C040E050E0420F7D
:10250000531F2B2D30E04217530714F4B41A01C0A7
:10251000B12C2E2D287159F4F6012B2D30E22223F7
:1025200019F031932150FBCFCB0CD11CB12CBB2324
:1025300031F0F601608396012F5F3F4F6901A111D1
:102540000BC0F6012B2D30E3222319F031932150DB
:10255000FBCFCB0CD11CB12CF80E0A81372F307178
:10256000A32E74FF03C0013309F4FA941F142CF452
:102570002F2D293018F028E001C021E0682F392FD5
:1025800097FF02C060E030E0462F532F612C712C82
:102590003EE2932EBC01621B71099B01DC01A41B6E
:1025A000B50BE1E0F0E0EC0FFD1FAE0FBF1FE12E19
:1025B000F12CF194E194F1084F3FFFEF5F0731F404
:1025C000F6019082B6016F5F7F4F6B01841795070C
:1025D0004CF02417350734F4BD01660D771DFB015F
:1025E000118101C010E341505109FFEF6F1A7F0ABA
:1025F000B6016F5F7F4F4E155F0524F0F601108323
:102600006B01DACF4817590739F4063320F4053344
:1026100019F4A11001C011E3F6011083FB018B2D09
:1026200090E2882319F091938150FBCFFB01EB0DD1
:10263000F11D108280E090E029960FB6F894DEBF7D
:102640000FBECDBFDF91CF911F910F91FF90EF9003
:10265000DF90CF90BF90AF909F907F906F90089544
:10266000283008F027E03327DA01990F311D87FD64
:10267000916000966105710539F432602E5F3D93DB
:1026800030E32A95E1F708959F3F30F080387105D7
:10269000610509F03C5F3C5F3D93913008F0806834
:1026A000911DDF93CF931F930F93FF92EF92192FFA
:1026B000987F9695E92F96959695E90FFF27E65214
:1026C000FD4F99273327EE24FF24A701E70105904A
:1026D0000894079428F4360FE71EF81E491F511D71
:1026E000660F771F881F991F0694A1F7059007941E
:1026F00028F4E70EF81E491F561FC11D770F881FCB
:10270000991F661F0694A1F70590079428F4F80E08
:10271000491F561FC71FD11D880F991F661F771F9E
:102720000694A1F70590079420F4490F561FC71F80
:10273000D81F990F661F771F881F0694A9F78491E9
:102740001095177041F0D695C79557954795F79412
:10275000E7941A95C1F7E0E8F2E0689415901591B6
:1027600035916591959105907FE27395E118F10A95
:10277000430B560BC90BD009C0F7E10CF11E431FE8
:10278000561FC91FD01D7EF4703311F48A95E6CF11
:10279000E894015030F0080F0AF40027021708F4FB
:1027A000202F2395022F7A3328F079E37D932A9501
:1027B000E9F710C07D932A9589F606949795679559
:1027C000379517951794E118F10A430B560BC90B6F
:1027D000D00998F023957E9173957A3308F070E3D1
:1027E0007C932013B8F77E9170617D9330F08395D0
:1027F00071E37D9370E32A95E1F71124EF90FF9048
:102800000F911F91CF91DF91992787FD90950895A2
:10281000DC01FC01672F71917723E1F7329704C047
:102820007C916D9370836291AE17BF07C8F30895D2
:1028300013E0C0E8D3E000E006C022970109FE01E2
:102840000BBF0E943D0FC238D10780E00807A9F7EF
:04285000F894FFCF2A
:102854000000D803800054703A003B0043783A00EB
:1028640043793A00437A3A0047783A0047793A0084
:10287400477A3A0041783A00736574757020646F42
:102884006E65200A0000000000F804CB04A004A830
:1028940004BB04CA0400000000B009340B03091C83
:0628A400090E098E090077
:00000001FF
